:0300000002005BA0
:03000600020003F2
:0300030002004CAC
:20000900752741E526700512013980F7852725752600745AB5270575274180E7E52704F553
:200029002780E0758920758DFA759850D28E7401B5260512013980F68525997526011099BA
:19004900ED80FB7526017525009000091200A502002C0200622222222296
:2000620075340075303F75314F75325F75336F90004C1200A5858235E535700585308180CB
:20008200177401B53505853181800D7402B535058532818003853381D0D0D083D082D0F0C1
:2000A200D0E022740FB534047582FF22E53420E00B43340175200075213F802EE53420E116
:2000C2000B43340275200175214F801EE53420E20B43340475200275215F800EE53420E3AA
:2000E2000943340875200375216F858122852181C082C083E4C0E0C0E0C0E0C0E0E520702C
:2001020009F5D0C0D085813080267401B5200A75D008C0D085813180177402B5200A75D00A
:2001220010C0D0858132800875D018C0D085813385228185208222C0E0C0F0C082C083C031
:20014200D0E535700585813080177401B53505858131800D7402B535058581328003858123
:2001620033E535700A753501E53430E1F480267401B5350A753502E53430E2E58017740215
:20018200B5350A753503E53430E3D68008753500E53430E0CCE535700585308180177401C2
:2001A200B53505853181800D7402B535058532818003853381D0D0D083D082D0F0D0E0225A
:2001C200E53570055334FE801C7401B535055334FD80127402B535055334FB80087403B558
:2001E20035035334F7E5357012753501AE345306027F00BE0245BF004280EA7401B5351263
:20020200753502AE345306047F00BE042EBF002B80D37402B53512753503AE345306087F64
:2002220000BE0817BF001480BC753500AE345306017F00BE0105BF000280AAE535700585A8
:20024200308180177401B53505853181800D7402B535058532818003853381D0D0D083D010
:0602620082D0F0D0E02282
:00000001FF
